{
  "contractName": "Marketplace",
  "abi": [
    {
      "inputs": [],
      "stateMutability": "nonpayable",
      "type": "constructor"
    },
    {
      "anonymous": false,
      "inputs": [
        {
          "indexed": false,
          "internalType": "uint256",
          "name": "id",
          "type": "uint256"
        },
        {
          "indexed": false,
          "internalType": "string",
          "name": "name",
          "type": "string"
        },
        {
          "indexed": false,
          "internalType": "uint256",
          "name": "price",
          "type": "uint256"
        },
        {
          "indexed": false,
          "internalType": "address payable",
          "name": "owner",
          "type": "address"
        },
        {
          "indexed": false,
          "internalType": "bool",
          "name": "purchased",
          "type": "bool"
        }
      ],
      "name": "ProductCreated",
      "type": "event"
    },
    {
      "anonymous": false,
      "inputs": [
        {
          "indexed": false,
          "internalType": "uint256",
          "name": "id",
          "type": "uint256"
        },
        {
          "indexed": false,
          "internalType": "string",
          "name": "name",
          "type": "string"
        },
        {
          "indexed": false,
          "internalType": "uint256",
          "name": "price",
          "type": "uint256"
        },
        {
          "indexed": false,
          "internalType": "address payable",
          "name": "owner",
          "type": "address"
        },
        {
          "indexed": false,
          "internalType": "bool",
          "name": "purchased",
          "type": "bool"
        }
      ],
      "name": "ProductPurchased",
      "type": "event"
    },
    {
      "inputs": [],
      "name": "name",
      "outputs": [
        {
          "internalType": "string",
          "name": "",
          "type": "string"
        }
      ],
      "stateMutability": "view",
      "type": "function",
      "constant": true
    },
    {
      "inputs": [],
      "name": "productCount",
      "outputs": [
        {
          "internalType": "uint256",
          "name": "",
          "type": "uint256"
        }
      ],
      "stateMutability": "view",
      "type": "function",
      "constant": true
    },
    {
      "inputs": [
        {
          "internalType": "uint256",
          "name": "",
          "type": "uint256"
        }
      ],
      "name": "products",
      "outputs": [
        {
          "internalType": "uint256",
          "name": "id",
          "type": "uint256"
        },
        {
          "internalType": "string",
          "name": "name",
          "type": "string"
        },
        {
          "internalType": "uint256",
          "name": "price",
          "type": "uint256"
        },
        {
          "internalType": "address payable",
          "name": "owner",
          "type": "address"
        },
        {
          "internalType": "bool",
          "name": "purchased",
          "type": "bool"
        }
      ],
      "stateMutability": "view",
      "type": "function",
      "constant": true
    },
    {
      "inputs": [
        {
          "internalType": "string",
          "name": "_name",
          "type": "string"
        },
        {
          "internalType": "uint256",
          "name": "_price",
          "type": "uint256"
        }
      ],
      "name": "createProduct",
      "outputs": [],
      "stateMutability": "nonpayable",
      "type": "function"
    },
    {
      "inputs": [
        {
          "internalType": "uint256",
          "name": "_id",
          "type": "uint256"
        }
      ],
      "name": "purchaseProduct",
      "outputs": [],
      "stateMutability": "payable",
      "type": "function",
      "payable": true
    }
  ],
  "bytecode": "0x608060405260006001553480156200001657600080fd5b506040518060400160405280600881526020017f656d6d797465636800000000000000000000000000000000000000000000000081525060009080519060200190620000649291906200006b565b5062000180565b82805462000079906200011b565b90600052602060002090601f0160209004810192826200009d5760008555620000e9565b82601f10620000b857805160ff1916838001178555620000e9565b82800160010185558215620000e9579182015b82811115620000e8578251825591602001919060010190620000cb565b5b509050620000f89190620000fc565b5090565b5b8082111562000117576000816000905550600101620000fd565b5090565b600060028204905060018216806200013457607f821691505b602082108114156200014b576200014a62000151565b5b50919050565b7f4e487b7100000000000000000000000000000000000000000000000000000000600052602260045260246000fd5b61103680620001906000396000f3fe60806040526004361061004a5760003560e01c806306fdde031461004f57806338e76a031461007a5780637acc0b2014610096578063e0f6ef87146100d7578063e9300c6c14610102575b600080fd5b34801561005b57600080fd5b5061006461012b565b6040516100719190610c72565b60405180910390f35b610094600480360381019061008f9190610a17565b6101b9565b005b3480156100a257600080fd5b506100bd60048036038101906100b89190610a17565b6105db565b6040516100ce959493929190610d6f565b60405180910390f35b3480156100e357600080fd5b506100ec6106c6565b6040516100f99190610d54565b60405180910390f35b34801561010e57600080fd5b50610129600480360381019061012491906109c3565b6106cc565b005b6000805461013890610ed0565b80601f016020809104026020016040519081016040528092919081815260200182805461016490610ed0565b80156101b15780601f10610186576101008083540402835291602001916101b1565b820191906000526020600020905b81548152906001019060200180831161019457829003601f168201915b505050505081565b6000600260008381526020019081526020016000206040518060a0016040529081600082015481526020016001820180546101f390610ed0565b80601f016020809104026020016040519081016040528092919081815260200182805461021f90610ed0565b801561026c5780601f106102415761010080835404028352916020019161026c565b820191906000526020600020905b81548152906001019060200180831161024f57829003601f168201915b50505050508152602001600282015481526020016003820160009054906101000a900473ffffffffffffffffffffffffffffffffffffffff1673ffffffffffffffffffffffffffffffffffffffff1673ffffffffffffffffffffffffffffffffffffffff1681526020016003820160149054906101000a900460ff1615151515815250509050600081606001519050600082600001511180156103155750600154826000015111155b610354576040517f08c379a000000000000000000000000000000000000000000000000000000000815260040161034b90610d14565b60405180910390fd5b816040015134101561039b576040517f08c379a000000000000000000000000000000000000000000000000000000000815260040161039290610cd4565b60405180910390fd5b8160800151156103e0576040517f08c379a00000000000000000000000000000000000000000000000000000000081526004016103d790610cb4565b60405180910390fd5b3373ffffffffffffffffffffffffffffffffffffffff168173ffffffffffffffffffffffffffffffffffffffff16141561044f576040517f08c379a000000000000000000000000000000000000000000000000000000000815260040161044690610cf4565b60405180910390fd5b33826060019073ffffffffffffffffffffffffffffffffffffffff16908173ffffffffffffffffffffffffffffffffffffffff1681525050600182608001901515908115158152505081600260008581526020019081526020016000206000820151816000015560208201518160010190805190602001906104d29291906108a3565b506040820151816002015560608201518160030160006101000a81548173ffffffffffffffffffffffffffffffffffffffff021916908373ffffffffffffffffffffffffffffffffffffffff16021790555060808201518160030160146101000a81548160ff0219169083151502179055509050508073ffffffffffffffffffffffffffffffffffffffff166108fc349081150290604051600060405180830381858888f1935050505015801561058d573d6000803e3d6000fd5b507f79558d0d7d4d900e2f15c4cc0a665f1acdbe415e44de900ecdd1e5bf12b56f4e83836020015184604001513360016040516105ce959493929190610d6f565b60405180910390a1505050565b600260205280600052604060002060009150905080600001549080600101805461060490610ed0565b80601f016020809104026020016040519081016040528092919081815260200182805461063090610ed0565b801561067d5780601f106106525761010080835404028352916020019161067d565b820191906000526020600020905b81548152906001019060200180831161066057829003601f168201915b5050505050908060020154908060030160009054906101000a900473ffffffffffffffffffffffffffffffffffffffff16908060030160149054906101000a900460ff16905085565b60015481565b6000825111610710576040517f08c379a000000000000000000000000000000000000000000000000000000000815260040161070790610c94565b60405180910390fd5b60008111610753576040517f08c379a000000000000000000000000000000000000000000000000000000000815260040161074a90610d34565b60405180910390fd5b6001600081548092919061076690610f02565b91905055506040518060a0016040528060015481526020018381526020018281526020013373ffffffffffffffffffffffffffffffffffffffff168152602001600015158152506002600060015481526020019081526020016000206000820151816000015560208201518160010190805190602001906107e89291906108a3565b506040820151816002015560608201518160030160006101000a81548173ffffffffffffffffffffffffffffffffffffffff021916908373ffffffffffffffffffffffffffffffffffffffff16021790555060808201518160030160146101000a81548160ff0219169083151502179055509050507fbc59c0c8165864dcceb377dd07d8f431d4303f8e501cb0a0374a10cc68d718366001548383336000604051610897959493929190610d6f565b60405180910390a15050565b8280546108af90610ed0565b90600052602060002090601f0160209004810192826108d15760008555610918565b82601f106108ea57805160ff1916838001178555610918565b82800160010185558215610918579182015b828111156109175782518255916020019190600101906108fc565b5b5090506109259190610929565b5090565b5b8082111561094257600081600090555060010161092a565b5090565b600061095961095484610dfa565b610dc9565b90508281526020810184848401111561097157600080fd5b61097c848285610e8e565b509392505050565b600082601f83011261099557600080fd5b81356109a5848260208601610946565b91505092915050565b6000813590506109bd81610fe9565b92915050565b600080604083850312156109d657600080fd5b600083013567ffffffffffffffff8111156109f057600080fd5b6109fc85828601610984565b9250506020610a0d858286016109ae565b9150509250929050565b600060208284031215610a2957600080fd5b6000610a37848285016109ae565b91505092915050565b610a4981610e46565b82525050565b610a5881610e58565b82525050565b6000610a6982610e2a565b610a738185610e35565b9350610a83818560208601610e9d565b610a8c81610fd8565b840191505092915050565b6000610aa4601883610e35565b91507f50726f64756374206e616d6520697320726571756972656400000000000000006000830152602082019050919050565b6000610ae4601983610e35565b91507f50726f6475637420616c726561647920707572636861736564000000000000006000830152602082019050919050565b6000610b24602883610e35565b91507f4e6f7420656e6f75676820457468657220746f2070757263686173652074686560008301527f2070726f647563740000000000000000000000000000000000000000000000006020830152604082019050919050565b6000610b8a602383610e35565b91507f53656c6c65722063616e6e6f7420627579207468656972206f776e2070726f6460008301527f75637400000000000000000000000000000000000000000000000000000000006020830152604082019050919050565b6000610bf0601283610e35565b91507f496e76616c69642070726f6475637420494400000000000000000000000000006000830152602082019050919050565b6000610c30601983610e35565b91507f50726f64756374207072696365206973207265717569726564000000000000006000830152602082019050919050565b610c6c81610e84565b82525050565b60006020820190508181036000830152610c8c8184610a5e565b905092915050565b60006020820190508181036000830152610cad81610a97565b9050919050565b60006020820190508181036000830152610ccd81610ad7565b9050919050565b60006020820190508181036000830152610ced81610b17565b9050919050565b60006020820190508181036000830152610d0d81610b7d565b9050919050565b60006020820190508181036000830152610d2d81610be3565b9050919050565b60006020820190508181036000830152610d4d81610c23565b9050919050565b6000602082019050610d696000830184610c63565b92915050565b600060a082019050610d846000830188610c63565b8181036020830152610d968187610a5e565b9050610da56040830186610c63565b610db26060830185610a40565b610dbf6080830184610a4f565b9695505050505050565b6000604051905081810181811067ffffffffffffffff82111715610df057610def610fa9565b5b8060405250919050565b600067ffffffffffffffff821115610e1557610e14610fa9565b5b601f19601f8301169050602081019050919050565b600081519050919050565b600082825260208201905092915050565b6000610e5182610e64565b9050919050565b60008115159050919050565b600073ffffffffffffffffffffffffffffffffffffffff82169050919050565b6000819050919050565b82818337600083830152505050565b60005b83811015610ebb578082015181840152602081019050610ea0565b83811115610eca576000848401525b50505050565b60006002820490506001821680610ee857607f821691505b60208210811415610efc57610efb610f7a565b5b50919050565b6000610f0d82610e84565b91507fffffffffffffffffffffffffffffffffffffffffffffffffffffffffffffffff821415610f4057610f3f610f4b565b5b600182019050919050565b7f4e487b7100000000000000000000000000000000000000000000000000000000600052601160045260246000fd5b7f4e487b7100000000000000000000000000000000000000000000000000000000600052602260045260246000fd5b7f4e487b7100000000000000000000000000000000000000000000000000000000600052604160045260246000fd5b6000601f19601f8301169050919050565b610ff281610e84565b8114610ffd57600080fd5b5056fea26469706673582212206716bcd6a51eda62dc128bf3b99c0efebcc154607ed8e1005fb276ac95df01d164736f6c63430008000033",
  "immutableReferences": {},
  "source": "// SPDX-License-Identifier: MIT\r\npragma solidity ^0.8.0;\r\n\r\ncontract Marketplace {\r\n    string public name;\r\n    uint public productCount = 0;\r\n    mapping(uint => Product) public products;\r\n\r\n    struct Product {\r\n        uint id;\r\n        string name;\r\n        uint price;\r\n        address payable owner;\r\n        bool purchased;\r\n    }\r\n\r\n    event ProductCreated(\r\n        uint id,\r\n        string name,\r\n        uint price,\r\n        address payable owner,\r\n        bool purchased\r\n    );\r\n\r\n    event ProductPurchased(\r\n        uint id,\r\n        string name,\r\n        uint price,\r\n        address payable owner,\r\n        bool purchased\r\n    );\r\n\r\n    // Removed 'public' visibility specifier from the constructor\r\n    constructor() {\r\n        name = \"emmytech\";\r\n    }\r\n\r\n    function createProduct(string memory _name, uint _price) public {\r\n        // Require a valid name\r\n        require(bytes(_name).length > 0, \"Product name is required\");\r\n        // Require a valid price\r\n        require(_price > 0, \"Product price is required\");\r\n        // Increment product count\r\n        productCount++;\r\n        // Create the product\r\n        products[productCount] = Product(productCount, _name, _price, payable(msg.sender), false);\r\n        // Trigger an event\r\n        emit ProductCreated(productCount, _name, _price, payable(msg.sender), false);\r\n    }\r\n\r\n    function purchaseProduct(uint _id) public payable {\r\n        // Fetch the product\r\n        Product memory _product = products[_id];\r\n        // Fetch the owner\r\n        address payable _seller = _product.owner;\r\n        // Make sure the product has a valid id\r\n        require(_product.id > 0 && _product.id <= productCount, \"Invalid product ID\");\r\n        // Require that there is enough Ether in the transaction\r\n        require(msg.value >= _product.price, \"Not enough Ether to purchase the product\");\r\n        // Require that the product has not been purchased already\r\n        require(!_product.purchased, \"Product already purchased\");\r\n        // Require that the buyer is not the seller\r\n        require(_seller != msg.sender, \"Seller cannot buy their own product\");\r\n        // Transfer ownership to the buyer\r\n        _product.owner = payable(msg.sender);\r\n        // Mark as purchased\r\n        _product.purchased = true;\r\n        // Update the product\r\n        products[_id] = _product;\r\n        // Pay the seller by sending them Ether\r\n        _seller.transfer(msg.value);\r\n        // Trigger an event\r\n        emit ProductPurchased(_id, _product.name, _product.price, payable(msg.sender), true);\r\n    }\r\n}\r\n",
  "sourcePath": "C:\\Users\\hp\\marketplace\\src\\contracts\\Marketplace.sol",
  "compiler": {
    "name": "solc",
    "version": "0.8.0+commit.c7dfd78e.Emscripten.clang"
  },
  "schemaVersion": "3.4.16",
  "updatedAt": "2024-08-13T00:01:38.095Z",
  "networkType": "ethereum",
  "devdoc": {
    "kind": "dev",
    "methods": {},
    "version": 1
  },
  "userdoc": {
    "kind": "user",
    "methods": {},
    "version": 1
  }
}